{"abi":[{"type":"constructor","inputs":[],"stateMutability":"nonpayable"},{"type":"function","name":"approve","inputs":[{"name":"to","type":"address","internalType":"address"},{"name":"tokenId","type":"uint256","internalType":"uint256"}],"outputs":[],"stateMutability":"nonpayable"},{"type":"function","name":"balanceOf","inputs":[{"name":"owner","type":"address","internalType":"address"}],"outputs":[{"name":"","type":"uint256","internalType":"uint256"}],"stateMutability":"view"},{"type":"function","name":"getApproved","inputs":[{"name":"tokenId","type":"uint256","internalType":"uint256"}],"outputs":[{"name":"","type":"address","internalType":"address"}],"stateMutability":"view"},{"type":"function","name":"isApprovedForAll","inputs":[{"name":"owner","type":"address","internalType":"address"},{"name":"operator","type":"address","internalType":"address"}],"outputs":[{"name":"","type":"bool","internalType":"bool"}],"stateMutability":"view"},{"type":"function","name":"mintCertification","inputs":[{"name":"recipient","type":"address","internalType":"address"},{"name":"tokenURI","type":"string","internalType":"string"}],"outputs":[],"stateMutability":"nonpayable"},{"type":"function","name":"name","inputs":[],"outputs":[{"name":"","type":"string","internalType":"string"}],"stateMutability":"view"},{"type":"function","name":"owner","inputs":[],"outputs":[{"name":"","type":"address","internalType":"address"}],"stateMutability":"view"},{"type":"function","name":"ownerOf","inputs":[{"name":"tokenId","type":"uint256","internalType":"uint256"}],"outputs":[{"name":"","type":"address","internalType":"address"}],"stateMutability":"view"},{"type":"function","name":"renounceOwnership","inputs":[],"outputs":[],"stateMutability":"nonpayable"},{"type":"function","name":"safeTransferFrom","inputs":[{"name":"from","type":"address","internalType":"address"},{"name":"to","type":"address","internalType":"address"},{"name":"tokenId","type":"uint256","internalType":"uint256"}],"outputs":[],"stateMutability":"nonpayable"},{"type":"function","name":"safeTransferFrom","inputs":[{"name":"from","type":"address","internalType":"address"},{"name":"to","type":"address","internalType":"address"},{"name":"tokenId","type":"uint256","internalType":"uint256"},{"name":"data","type":"bytes","internalType":"bytes"}],"outputs":[],"stateMutability":"nonpayable"},{"type":"function","name":"setApprovalForAll","inputs":[{"name":"operator","type":"address","internalType":"address"},{"name":"approved","type":"bool","internalType":"bool"}],"outputs":[],"stateMutability":"nonpayable"},{"type":"function","name":"supportsInterface","inputs":[{"name":"interfaceId","type":"bytes4","internalType":"bytes4"}],"outputs":[{"name":"","type":"bool","internalType":"bool"}],"stateMutability":"view"},{"type":"function","name":"symbol","inputs":[],"outputs":[{"name":"","type":"string","internalType":"string"}],"stateMutability":"view"},{"type":"function","name":"tokenIdCounter","inputs":[],"outputs":[{"name":"","type":"uint256","internalType":"uint256"}],"stateMutability":"view"},{"type":"function","name":"tokenURI","inputs":[{"name":"tokenId","type":"uint256","internalType":"uint256"}],"outputs":[{"name":"","type":"string","internalType":"string"}],"stateMutability":"view"},{"type":"function","name":"transferFrom","inputs":[{"name":"from","type":"address","internalType":"address"},{"name":"to","type":"address","internalType":"address"},{"name":"tokenId","type":"uint256","internalType":"uint256"}],"outputs":[],"stateMutability":"nonpayable"},{"type":"function","name":"transferOwnership","inputs":[{"name":"newOwner","type":"address","internalType":"address"}],"outputs":[],"stateMutability":"nonpayable"},{"type":"event","name":"Approval","inputs":[{"name":"owner","type":"address","indexed":true,"internalType":"address"},{"name":"approved","type":"address","indexed":true,"internalType":"address"},{"name":"tokenId","type":"uint256","indexed":true,"internalType":"uint256"}],"anonymous":false},{"type":"event","name":"ApprovalForAll","inputs":[{"name":"owner","type":"address","indexed":true,"internalType":"address"},{"name":"operator","type":"address","indexed":true,"internalType":"address"},{"name":"approved","type":"bool","indexed":false,"internalType":"bool"}],"anonymous":false},{"type":"event","name":"BatchMetadataUpdate","inputs":[{"name":"_fromTokenId","type":"uint256","indexed":false,"internalType":"uint256"},{"name":"_toTokenId","type":"uint256","indexed":false,"internalType":"uint256"}],"anonymous":false},{"type":"event","name":"MetadataUpdate","inputs":[{"name":"_tokenId","type":"uint256","indexed":false,"internalType":"uint256"}],"anonymous":false},{"type":"event","name":"OwnershipTransferred","inputs":[{"name":"previousOwner","type":"address","indexed":true,"internalType":"address"},{"name":"newOwner","type":"address","indexed":true,"internalType":"address"}],"anonymous":false},{"type":"event","name":"Transfer","inputs":[{"name":"from","type":"address","indexed":true,"internalType":"address"},{"name":"to","type":"address","indexed":true,"internalType":"address"},{"name":"tokenId","type":"uint256","indexed":true,"internalType":"uint256"}],"anonymous":false},{"type":"error","name":"ERC721IncorrectOwner","inputs":[{"name":"sender","type":"address","internalType":"address"},{"name":"tokenId","type":"uint256","internalType":"uint256"},{"name":"owner","type":"address","internalType":"address"}]},{"type":"error","name":"ERC721InsufficientApproval","inputs":[{"name":"operator","type":"address","internalType":"address"},{"name":"tokenId","type":"uint256","internalType":"uint256"}]},{"type":"error","name":"ERC721InvalidApprover","inputs":[{"name":"approver","type":"address","internalType":"address"}]},{"type":"error","name":"ERC721InvalidOperator","inputs":[{"name":"operator","type":"address","internalType":"address"}]},{"type":"error","name":"ERC721InvalidOwner","inputs":[{"name":"owner","type":"address","internalType":"address"}]},{"type":"error","name":"ERC721InvalidReceiver","inputs":[{"name":"receiver","type":"address","internalType":"address"}]},{"type":"error","name":"ERC721InvalidSender","inputs":[{"name":"sender","type":"address","internalType":"address"}]},{"type":"error","name":"ERC721NonexistentToken","inputs":[{"name":"tokenId","type":"uint256","internalType":"uint256"}]},{"type":"error","name":"OwnableInvalidOwner","inputs":[{"name":"owner","type":"address","internalType":"address"}]},{"type":"error","name":"OwnableUnauthorizedAccount","inputs":[{"name":"account","type":"address","internalType":"address"}]}],"bytecode":{"object":"0x608060405234801561001057600080fd5b50336040518060400160405280601981526020017f43727970746f51756573742043657274696669636174696f6e000000000000008152506040518060400160405280600381526020016243514360e81b815250816000908161007391906101b6565b50600161008082826101b6565b5050506001600160a01b0381166100b157604051631e4fbdf760e01b81526000600482015260240160405180910390fd5b6100ba816100c5565b506000600855610274565b600780546001600160a01b038381166001600160a01b0319831681179093556040519116919082907f8be0079c531659141344cd1fd0a4f28419497f9722a3daafe3b4186f6b6457e090600090a35050565b634e487b7160e01b600052604160045260246000fd5b600181811c9082168061014157607f821691505b60208210810361016157634e487b7160e01b600052602260045260246000fd5b50919050565b601f8211156101b157806000526020600020601f840160051c8101602085101561018e5750805b601f840160051c820191505b818110156101ae576000815560010161019a565b50505b505050565b81516001600160401b038111156101cf576101cf610117565b6101e3816101dd845461012d565b84610167565b6020601f82116001811461021757600083156101ff5750848201515b600019600385901b1c1916600184901b1784556101ae565b600084815260208120601f198516915b828110156102475787850151825560209485019460019092019101610227565b50848210156102655786840151600019600387901b60f8161c191681555b50505050600190811b01905550565b61143b806102836000396000f3fe608060405234801561001057600080fd5b50600436106101165760003560e01c806385363a09116100a2578063a22cb46511610071578063a22cb4651461022f578063b88d4fde14610242578063c87b56dd14610255578063e985e9c514610268578063f2fde38b1461027b57600080fd5b806385363a09146101fa5780638da5cb5b1461020d57806395d89b411461021e57806398bdf6f51461022657600080fd5b806323b872dd116100e957806323b872dd1461019857806342842e0e146101ab5780636352211e146101be57806370a08231146101d1578063715018a6146101f257600080fd5b806301ffc9a71461011b57806306fdde0314610143578063081812fc14610158578063095ea7b314610183575b600080fd5b61012e610129366004610f07565b61028e565b60405190151581526020015b60405180910390f35b61014b6102b9565b60405161013a9190610f74565b61016b610166366004610f87565b61034b565b6040516001600160a01b03909116815260200161013a565b610196610191366004610fbc565b610374565b005b6101966101a6366004610fe6565b610383565b6101966101b9366004610fe6565b610413565b61016b6101cc366004610f87565b610433565b6101e46101df366004611023565b61043e565b60405190815260200161013a565b610196610486565b6101966102083660046110ce565b61049a565b6007546001600160a01b031661016b565b61014b6104d6565b6101e460085481565b61019661023d366004611130565b6104e5565b61019661025036600461116c565b6104f0565b61014b610263366004610f87565b610508565b61012e6102763660046111e8565b610619565b610196610289366004611023565b610647565b60006001600160e01b03198216632483248360e11b14806102b357506102b382610685565b92915050565b6060600080546102c89061121b565b80601f01602080910402602001604051908101604052809291908181526020018280546102f49061121b565b80156103415780601f1061031657610100808354040283529160200191610341565b820191906000526020600020905b81548152906001019060200180831161032457829003601f168201915b5050505050905090565b6000610356826106d5565b506000828152600460205260409020546001600160a01b03166102b3565b61037f82823361070e565b5050565b6001600160a01b0382166103b257604051633250574960e11b8152600060048201526024015b60405180910390fd5b60006103bf83833361071b565b9050836001600160a01b0316816001600160a01b03161461040d576040516364283d7b60e01b81526001600160a01b03808616600483015260248201849052821660448201526064016103a9565b50505050565b61042e838383604051806020016040528060008152506104f0565b505050565b60006102b3826106d5565b60006001600160a01b03821661046a576040516322718ad960e21b8152600060048201526024016103a9565b506001600160a01b031660009081526003602052604090205490565b61048e610814565b6104986000610841565b565b6104a2610814565b6008546104af8382610893565b6104b981836108ad565b6001600860008282546104cc9190611255565b9091555050505050565b6060600180546102c89061121b565b61037f3383836108fd565b6104fb848484610383565b61040d338585858561099c565b6060610513826106d5565b506000828152600660205260408120805461052d9061121b565b80601f01602080910402602001604051908101604052809291908181526020018280546105599061121b565b80156105a65780601f1061057b576101008083540402835291602001916105a6565b820191906000526020600020905b81548152906001019060200180831161058957829003601f168201915b5050505050905060006105c460408051602081019091526000815290565b905080516000036105d6575092915050565b8151156106085780826040516020016105f0929190611276565b60405160208183030381529060405292505050919050565b61061184610ac7565b949350505050565b6001600160a01b03918216600090815260056020908152604080832093909416825291909152205460ff1690565b61064f610814565b6001600160a01b03811661067957604051631e4fbdf760e01b8152600060048201526024016103a9565b61068281610841565b50565b60006001600160e01b031982166380ac58cd60e01b14806106b657506001600160e01b03198216635b5e139f60e01b145b806102b357506301ffc9a760e01b6001600160e01b03198316146102b3565b6000818152600260205260408120546001600160a01b0316806102b357604051637e27328960e01b8152600481018490526024016103a9565b61042e8383836001610b3c565b6000828152600260205260408120546001600160a01b039081169083161561074857610748818486610c42565b6001600160a01b0381161561078657610765600085600080610b3c565b6001600160a01b038116600090815260036020526040902080546000190190555b6001600160a01b038516156107b5576001600160a01b0385166000908152600360205260409020805460010190555b60008481526002602052604080822080546001600160a01b0319166001600160a01b0389811691821790925591518793918516917fddf252ad1be2c89b69c2b068fc378daa952ba7f163c4a11628f55a4df523b3ef91a4949350505050565b6007546001600160a01b031633146104985760405163118cdaa760e01b81523360048201526024016103a9565b600780546001600160a01b038381166001600160a01b0319831681179093556040519116919082907f8be0079c531659141344cd1fd0a4f28419497f9722a3daafe3b4186f6b6457e090600090a35050565b61037f828260405180602001604052806000815250610ca6565b60008281526006602052604090206108c582826112ec565b506040518281527ff8e1a15aba9398e019f0b49df1a4fde98ee17ae345cb5f6b5e2c27f5033e8ce79060200160405180910390a15050565b6001600160a01b03821661092f57604051630b61174360e31b81526001600160a01b03831660048201526024016103a9565b6001600160a01b03838116600081815260056020908152604080832094871680845294825291829020805460ff191686151590811790915591519182527f17307eab39ab6107e8899845ad3d59bd9653f200f220920489ca2b5937696c31910160405180910390a3505050565b6001600160a01b0383163b15610ac057604051630a85bd0160e11b81526001600160a01b0384169063150b7a02906109de9088908890879087906004016113ab565b6020604051808303816000875af1925050508015610a19575060408051601f3d908101601f19168201909252610a16918101906113e8565b60015b610a82573d808015610a47576040519150601f19603f3d011682016040523d82523d6000602084013e610a4c565b606091505b508051600003610a7a57604051633250574960e11b81526001600160a01b03851660048201526024016103a9565b805181602001fd5b6001600160e01b03198116630a85bd0160e11b14610abe57604051633250574960e11b81526001600160a01b03851660048201526024016103a9565b505b5050505050565b6060610ad2826106d5565b506000610aea60408051602081019091526000815290565b90506000815111610b0a5760405180602001604052806000815250610b35565b80610b1484610cbe565b604051602001610b25929190611276565b6040516020818303038152906040525b9392505050565b8080610b5057506001600160a01b03821615155b15610c12576000610b60846106d5565b90506001600160a01b03831615801590610b8c5750826001600160a01b0316816001600160a01b031614155b8015610b9f5750610b9d8184610619565b155b15610bc85760405163a9fbf51f60e01b81526001600160a01b03841660048201526024016103a9565b8115610c105783856001600160a01b0316826001600160a01b03167f8c5be1e5ebec7d5bd14f71427d1e84f3dd0314c0f7b2291e5b200ac8c7c3b92560405160405180910390a45b505b5050600090815260046020526040902080546001600160a01b0319166001600160a01b0392909216919091179055565b610c4d838383610d51565b61042e576001600160a01b038316610c7b57604051637e27328960e01b8152600481018290526024016103a9565b60405163177e802f60e01b81526001600160a01b0383166004820152602481018290526044016103a9565b610cb08383610db4565b61042e33600085858561099c565b60606000610ccb83610e19565b600101905060008167ffffffffffffffff811115610ceb57610ceb61103e565b6040519080825280601f01601f191660200182016040528015610d15576020820181803683370190505b5090508181016020015b600019016f181899199a1a9b1b9c1cb0b131b232b360811b600a86061a8153600a8504945084610d1f57509392505050565b60006001600160a01b038316158015906106115750826001600160a01b0316846001600160a01b03161480610d8b5750610d8b8484610619565b806106115750506000908152600460205260409020546001600160a01b03908116911614919050565b6001600160a01b038216610dde57604051633250574960e11b8152600060048201526024016103a9565b6000610dec8383600061071b565b90506001600160a01b0381161561042e576040516339e3563760e11b8152600060048201526024016103a9565b60008072184f03e93ff9f4daa797ed6e38ed64bf6a1f0160401b8310610e585772184f03e93ff9f4daa797ed6e38ed64bf6a1f0160401b830492506040015b6d04ee2d6d415b85acef81000000008310610e84576d04ee2d6d415b85acef8100000000830492506020015b662386f26fc100008310610ea257662386f26fc10000830492506010015b6305f5e1008310610eba576305f5e100830492506008015b6127108310610ece57612710830492506004015b60648310610ee0576064830492506002015b600a83106102b35760010192915050565b6001600160e01b03198116811461068257600080fd5b600060208284031215610f1957600080fd5b8135610b3581610ef1565b60005b83811015610f3f578181015183820152602001610f27565b50506000910152565b60008151808452610f60816020860160208601610f24565b601f01601f19169290920160200192915050565b602081526000610b356020830184610f48565b600060208284031215610f9957600080fd5b5035919050565b80356001600160a01b0381168114610fb757600080fd5b919050565b60008060408385031215610fcf57600080fd5b610fd883610fa0565b946020939093013593505050565b600080600060608486031215610ffb57600080fd5b61100484610fa0565b925061101260208501610fa0565b929592945050506040919091013590565b60006020828403121561103557600080fd5b610b3582610fa0565b634e487b7160e01b600052604160045260246000fd5b60008067ffffffffffffffff84111561106f5761106f61103e565b50604051601f19601f85018116603f0116810181811067ffffffffffffffff8211171561109e5761109e61103e565b6040528381529050808284018510156110b657600080fd5b83836020830137600060208583010152509392505050565b600080604083850312156110e157600080fd5b6110ea83610fa0565b9150602083013567ffffffffffffffff81111561110657600080fd5b8301601f8101851361111757600080fd5b61112685823560208401611054565b9150509250929050565b6000806040838503121561114357600080fd5b61114c83610fa0565b91506020830135801515811461116157600080fd5b809150509250929050565b6000806000806080858703121561118257600080fd5b61118b85610fa0565b935061119960208601610fa0565b925060408501359150606085013567ffffffffffffffff8111156111bc57600080fd5b8501601f810187136111cd57600080fd5b6111dc87823560208401611054565b91505092959194509250565b600080604083850312156111fb57600080fd5b61120483610fa0565b915061121260208401610fa0565b90509250929050565b600181811c9082168061122f57607f821691505b60208210810361124f57634e487b7160e01b600052602260045260246000fd5b50919050565b808201808211156102b357634e487b7160e01b600052601160045260246000fd5b60008351611288818460208801610f24565b83519083019061129c818360208801610f24565b01949350505050565b601f82111561042e57806000526020600020601f840160051c810160208510156112cc5750805b601f840160051c820191505b81811015610ac057600081556001016112d8565b815167ffffffffffffffff8111156113065761130661103e565b61131a81611314845461121b565b846112a5565b6020601f82116001811461134e57600083156113365750848201515b600019600385901b1c1916600184901b178455610ac0565b600084815260208120601f198516915b8281101561137e578785015182556020948501946001909201910161135e565b508482101561139c5786840151600019600387901b60f8161c191681555b50505050600190811b01905550565b6001600160a01b03858116825284166020820152604081018390526080606082018190526000906113de90830184610f48565b9695505050505050565b6000602082840312156113fa57600080fd5b8151610b3581610ef156fea2646970667358221220459659ca12149e4e035423569b5f5b6bfbaabdf0e287e122361d4ad01e252fb064736f6c634300081b0033","linkReferences":{}},"methodIdentifiers":{"approve(address,uint256)":"095ea7b3","balanceOf(address)":"70a08231","getApproved(uint256)":"081812fc","isApprovedForAll(address,address)":"e985e9c5","mintCertification(address,string)":"85363a09","name()":"06fdde03","owner()":"8da5cb5b","ownerOf(uint256)":"6352211e","renounceOwnership()":"715018a6","safeTransferFrom(address,address,uint256)":"42842e0e","safeTransferFrom(address,address,uint256,bytes)":"b88d4fde","setApprovalForAll(address,bool)":"a22cb465","supportsInterface(bytes4)":"01ffc9a7","symbol()":"95d89b41","tokenIdCounter()":"98bdf6f5","tokenURI(uint256)":"c87b56dd","transferFrom(address,address,uint256)":"23b872dd","transferOwnership(address)":"f2fde38b"},"id":44}